{
  "_format": "hh-sol-artifact-1",
  "contractName": "NftSale",
  "sourceName": "contracts/NftSale.sol",
  "abi": [
    {
      "inputs": [],
      "stateMutability": "nonpayable",
      "type": "constructor"
    },
    {
      "inputs": [],
      "name": "buy",
      "outputs": [
        {
          "internalType": "bool",
          "name": "",
          "type": "bool"
        }
      ],
      "stateMutability": "payable",
      "type": "function"
    },
    {
      "inputs": [],
      "name": "canBuy",
      "outputs": [
        {
          "internalType": "bool",
          "name": "",
          "type": "bool"
        }
      ],
      "stateMutability": "view",
      "type": "function"
    },
    {
      "inputs": [],
      "name": "charity",
      "outputs": [
        {
          "internalType": "address",
          "name": "",
          "type": "address"
        }
      ],
      "stateMutability": "view",
      "type": "function"
    },
    {
      "inputs": [],
      "name": "hasAccess",
      "outputs": [
        {
          "internalType": "bool",
          "name": "",
          "type": "bool"
        }
      ],
      "stateMutability": "view",
      "type": "function"
    },
    {
      "inputs": [],
      "name": "maxSales",
      "outputs": [
        {
          "internalType": "uint256",
          "name": "",
          "type": "uint256"
        }
      ],
      "stateMutability": "view",
      "type": "function"
    },
    {
      "inputs": [],
      "name": "owner",
      "outputs": [
        {
          "internalType": "address",
          "name": "",
          "type": "address"
        }
      ],
      "stateMutability": "view",
      "type": "function"
    },
    {
      "inputs": [],
      "name": "totalSales",
      "outputs": [
        {
          "internalType": "uint256",
          "name": "",
          "type": "uint256"
        }
      ],
      "stateMutability": "view",
      "type": "function"
    }
  ],
  "bytecode": "0x6080604052348015600f57600080fd5b5060008081905550606460018190555033600260006101000a81548173ffffffffffffffffffffffffffffffffffffffff021916908373ffffffffffffffffffffffffffffffffffffffff16021790555073ea626f9c62ce84271871101ca4802340d8a486da600360006101000a81548173ffffffffffffffffffffffffffffffffffffffff021916908373ffffffffffffffffffffffffffffffffffffffff1602179055506106c7806100c46000396000f3fe6080604052600436106100705760003560e01c8063934aa0231161004e578063934aa023146100f6578063a6f2ae3a14610121578063bfdf9b6e1461013f578063ff65226c1461016a57610070565b80636605ff661461007557806385a2dd15146100a05780638da5cb5b146100cb575b600080fd5b34801561008157600080fd5b5061008a610195565b604051610097919061042c565b60405180910390f35b3480156100ac57600080fd5b506100b561019b565b6040516100c29190610462565b60405180910390f35b3480156100d757600080fd5b506100e06101ef565b6040516100ed91906104be565b60405180910390f35b34801561010257600080fd5b5061010b610215565b60405161011891906104be565b60405180910390f35b61012961023b565b6040516101369190610462565b60405180910390f35b34801561014b57600080fd5b506101546103ff565b604051610161919061042c565b60405180910390f35b34801561017657600080fd5b5061017f610405565b60405161018c9190610462565b60405180910390f35b60005481565b6000600460003373ffffffffffffffffffffffffffffffffffffffff1673ffffffffffffffffffffffffffffffffffffffff16815260200190815260200160002060009054906101000a900460ff16905090565b600260009054906101000a900473ffffffffffffffffffffffffffffffffffffffff1681565b600360009054906101000a900473ffffffffffffffffffffffffffffffffffffffff1681565b600060011515610249610405565b15151461028b576040517f08c379a000000000000000000000000000000000000000000000000000000000815260040161028290610536565b60405180910390fd5b662386f26fc1000034146102d4576040517f08c379a00000000000000000000000000000000000000000000000000000000081526004016102cb906105a2565b60405180910390fd5b600015156102e061019b565b151514610322576040517f08c379a00000000000000000000000000000000000000000000000000000000081526004016103199061060e565b60405180910390fd5b600260009054906101000a900473ffffffffffffffffffffffffffffffffffffffff1673ffffffffffffffffffffffffffffffffffffffff166108fc349081150290604051600060405180830381858888f1935050505015801561038a573d6000803e3d6000fd5b50600160005461039a919061065d565b6000819055506001600460003373ffffffffffffffffffffffffffffffffffffffff1673ffffffffffffffffffffffffffffffffffffffff16815260200190815260200160002060006101000a81548160ff0219169083151502179055506001905090565b60015481565b600060015460005410905090565b6000819050919050565b61042681610413565b82525050565b6000602082019050610441600083018461041d565b92915050565b60008115159050919050565b61045c81610447565b82525050565b60006020820190506104776000830184610453565b92915050565b600073ffffffffffffffffffffffffffffffffffffffff82169050919050565b60006104a88261047d565b9050919050565b6104b88161049d565b82525050565b60006020820190506104d360008301846104af565b92915050565b600082825260208201905092915050565b7f427579204661696c656400000000000000000000000000000000000000000000600082015250565b6000610520600a836104d9565b915061052b826104ea565b602082019050919050565b6000602082019050818103600083015261054f81610513565b9050919050565b7f42616420616d6f756e7400000000000000000000000000000000000000000000600082015250565b600061058c600a836104d9565b915061059782610556565b602082019050919050565b600060208201905081810360008301526105bb8161057f565b9050919050565b7f616c7265616479206f776e656400000000000000000000000000000000000000600082015250565b60006105f8600d836104d9565b9150610603826105c2565b602082019050919050565b60006020820190508181036000830152610627816105eb565b9050919050565b7f4e487b7100000000000000000000000000000000000000000000000000000000600052601160045260246000fd5b600061066882610413565b915061067383610413565b925082820190508082111561068b5761068a61062e565b5b9291505056fea26469706673582212202f7ab1c2383add1d449fbe2e6ec6d01cbd996a1021c21ed376071f8d663659bb64736f6c634300081e0033",
  "linkReferences": {},
  "deployedLinkReferences": {}
}